{"abi":[{"type":"constructor","inputs":[],"stateMutability":"nonpayable"},{"type":"receive","stateMutability":"payable"},{"type":"function","name":"addFees","inputs":[{"name":"token","type":"address","internalType":"address"}],"outputs":[],"stateMutability":"payable"},{"type":"function","name":"balanceOf","inputs":[{"name":"token","type":"address","internalType":"address"},{"name":"account","type":"address","internalType":"address"}],"outputs":[{"name":"","type":"uint256","internalType":"uint256"}],"stateMutability":"view"},{"type":"function","name":"batchClaiming","inputs":[{"name":"tokenList","type":"address[]","internalType":"address[]"}],"outputs":[],"stateMutability":"nonpayable"},{"type":"function","name":"claimFees","inputs":[{"name":"token","type":"address","internalType":"address"}],"outputs":[],"stateMutability":"nonpayable"},{"type":"function","name":"curves","inputs":[],"outputs":[{"name":"","type":"address","internalType":"contract Curves"}],"stateMutability":"view"},{"type":"function","name":"getClaimableFees","inputs":[{"name":"token","type":"address","internalType":"address"},{"name":"account","type":"address","internalType":"address"}],"outputs":[{"name":"","type":"uint256","internalType":"uint256"}],"stateMutability":"view"},{"type":"function","name":"getUserTokens","inputs":[{"name":"user","type":"address","internalType":"address"}],"outputs":[{"name":"","type":"address[]","internalType":"address[]"}],"stateMutability":"view"},{"type":"function","name":"getUserTokensAndClaimable","inputs":[{"name":"user","type":"address","internalType":"address"}],"outputs":[{"name":"","type":"tuple[]","internalType":"struct FeeSplitter.UserClaimData[]","components":[{"name":"claimableFees","type":"uint256","internalType":"uint256"},{"name":"token","type":"address","internalType":"address"}]}],"stateMutability":"view"},{"type":"function","name":"managers","inputs":[{"name":"","type":"address","internalType":"address"}],"outputs":[{"name":"","type":"bool","internalType":"bool"}],"stateMutability":"view"},{"type":"function","name":"onBalanceChange","inputs":[{"name":"token","type":"address","internalType":"address"},{"name":"account","type":"address","internalType":"address"}],"outputs":[],"stateMutability":"nonpayable"},{"type":"function","name":"owner","inputs":[],"outputs":[{"name":"","type":"address","internalType":"address"}],"stateMutability":"view"},{"type":"function","name":"setCurves","inputs":[{"name":"curves_","type":"address","internalType":"contract Curves"}],"outputs":[],"stateMutability":"nonpayable"},{"type":"function","name":"setManager","inputs":[{"name":"manager_","type":"address","internalType":"address"},{"name":"value","type":"bool","internalType":"bool"}],"outputs":[],"stateMutability":"nonpayable"},{"type":"function","name":"tokensData","inputs":[{"name":"","type":"address","internalType":"address"}],"outputs":[{"name":"cumulativeFeePerToken","type":"uint256","internalType":"uint256"}],"stateMutability":"view"},{"type":"function","name":"totalSupply","inputs":[{"name":"token","type":"address","internalType":"address"}],"outputs":[{"name":"","type":"uint256","internalType":"uint256"}],"stateMutability":"view"},{"type":"function","name":"transferOwnership","inputs":[{"name":"owner_","type":"address","internalType":"address"}],"outputs":[],"stateMutability":"nonpayable"},{"type":"function","name":"userTokens","inputs":[{"name":"","type":"address","internalType":"address"},{"name":"","type":"uint256","internalType":"uint256"}],"outputs":[{"name":"","type":"address","internalType":"address"}],"stateMutability":"view"},{"type":"event","name":"FeesClaimed","inputs":[{"name":"token","type":"address","indexed":true,"internalType":"address"},{"name":"user","type":"address","indexed":true,"internalType":"address"},{"name":"amount","type":"uint256","indexed":false,"internalType":"uint256"}],"anonymous":false},{"type":"error","name":"NoFeesToClaim","inputs":[]},{"type":"error","name":"NoTokenHolders","inputs":[]}],"bytecode":{"object":"0x608060405234801561001057600080fd5b50600080546001600160a01b0319163390811782558152600160208190526040909120805460ff19169091179055610ef18061004d6000396000f3fe6080604052600436106101025760003560e01c8063a5e90eee11610095578063f079f3ea11610064578063f079f3ea146102ff578063f2fde38b1461033c578063f7888aec14610379578063f9f411d814610399578063fdff9b4d146103b957600080fd5b8063a5e90eee1461023e578063ac66c6e014610284578063e4dc2aa4146102bf578063ebf34712146102df57600080fd5b8063519dc8d2116100d1578063519dc8d2146101a65780635accf175146101d357806364e084bf1461020b5780638da5cb5b1461021e57600080fd5b806309fc572f1461010e57806315a0ea6a146101305780631e22e0731461015057806320bf34471461017057600080fd5b3661010957005b600080fd5b34801561011a57600080fd5b5061012e610129366004610ca3565b6103f9565b005b34801561013c57600080fd5b5061012e61014b366004610bee565b610536565b34801561015c57600080fd5b5061012e61016b366004610c0b565b610607565b34801561017c57600080fd5b5061019061018b366004610bee565b61068b565b60405161019d9190610d7e565b60405180910390f35b3480156101b257600080fd5b506101c66101c1366004610bee565b61078e565b60405161019d9190610d31565b3480156101df57600080fd5b506002546101f3906001600160a01b031681565b6040516001600160a01b03909116815260200161019d565b61012e610219366004610bee565b610804565b34801561022a57600080fd5b506000546101f3906001600160a01b031681565b34801561024a57600080fd5b5061012e610259366004610c44565b6001600160a01b03919091166000908152600160205260409020805460ff1916911515919091179055565b34801561029057600080fd5b506102b161029f366004610bee565b60036020526000908152604090205481565b60405190815260200161019d565b3480156102cb57600080fd5b506102b16102da366004610bee565b61088a565b3480156102eb57600080fd5b506102b16102fa366004610c0b565b6109b2565b34801561030b57600080fd5b5061012e61031a366004610bee565b600280546001600160a01b0319166001600160a01b0392909216919091179055565b34801561034857600080fd5b5061012e610357366004610bee565b600080546001600160a01b0319166001600160a01b0392909216919091179055565b34801561038557600080fd5b506102b1610394366004610c0b565b610a50565b3480156103a557600080fd5b506101f36103b4366004610c77565b610af2565b3480156103c557600080fd5b506103e96103d4366004610bee565b60016020526000908152604090205460ff1681565b604051901515815260200161019d565b6000805b828110156104e457600084848381811061041957610419610e77565b905060200201602081019061042e9190610bee565b905061043a8133610b2a565b600061044682336109b2565b905080156104cf576001600160a01b038216600090815260036020908152604080832033845260020190915281205561047f8185610dd6565b9350336001600160a01b0316826001600160a01b03167ffe3464cd748424446c37877c28ce5b700222c5bc9f90d908afcc4e5cb22707ff836040516104c691815260200190565b60405180910390a35b505080806104dc90610e46565b9150506103fd565b50806105035760405163211b631760e21b815260040160405180910390fd5b604051339082156108fc029083906000818181858888f19350505050158015610530573d6000803e3d6000fd5b50505050565b6105408133610b2a565b600061054c82336109b2565b90508061056c5760405163211b631760e21b815260040160405180910390fd5b6001600160a01b038216600090815260036020908152604080832033808552600290910190925280832083905551909183156108fc02918491818181858888f193505050501580156105c2573d6000803e3d6000fd5b5060405181815233906001600160a01b038416907ffe3464cd748424446c37877c28ce5b700222c5bc9f90d908afcc4e5cb22707ff9060200160405180910390a35050565b6001600160a01b03828116600090815260036020908152604080832080549486168452600181019092528220929092556106418484610a50565b1115610686576001600160a01b0382811660009081526004602090815260408220805460018101825590835291200180546001600160a01b0319169185169190911790555b505050565b606060006106988361078e565b90506000815167ffffffffffffffff8111156106b6576106b6610e8d565b6040519080825280602002602001820160405280156106fb57816020015b60408051808201909152600080825260208201528152602001906001900390816106d45790505b50905060005b825181101561078657600083828151811061071e5761071e610e77565b60200260200101519050600061073482886109b2565b90506040518060400160405280828152602001836001600160a01b031681525084848151811061076657610766610e77565b60200260200101819052505050808061077e90610e46565b915050610701565b509392505050565b6001600160a01b0381166000908152600460209081526040918290208054835181840281018401909452808452606093928301828280156107f857602002820191906000526020600020905b81546001600160a01b031681526001909101906020018083116107da575b50505050509050919050565b33600090815260016020526108188261088a565b90508061083857604051630f1c0ab160e21b815260040160405180910390fd5b6001600160a01b038216600090815260036020526040902081610863670de0b6b3a764000034610e10565b61086d9190610dee565b8160000160008282546108809190610dd6565b9091555050505050565b600254604051634bcaad0b60e01b81526001600160a01b03838116600483015290911660248201819052600091670de0b6b3a76400009190634bcaad0b9060440160206040518083038186803b1580156108e357600080fd5b505afa1580156108f7573d6000803e3d6000fd5b505050506040513d601f19601f8201168201806040525081019061091b9190610d18565b6002546040516316593dcf60e01b81526001600160a01b038681166004830152909116906316593dcf9060240160206040518083038186803b15801561096057600080fd5b505afa158015610974573d6000803e3d6000fd5b505050506040513d601f19601f820116820180604052508101906109989190610d18565b6109a29190610e2f565b6109ac9190610e10565b92915050565b6001600160a01b0382166000908152600360205260408120816109d58585610a50565b6001600160a01b0385166000908152600184016020526040812054845492935090918391610a0291610e2f565b610a0c9190610e10565b6001600160a01b0386166000908152600285016020526040902054909150610a3c670de0b6b3a764000083610dee565b610a469190610dd6565b9695505050505050565b600254604051634bcaad0b60e01b81526001600160a01b0384811660048301528381166024830152600092670de0b6b3a764000092911690634bcaad0b9060440160206040518083038186803b158015610aa957600080fd5b505afa158015610abd573d6000803e3d6000fd5b505050506040513d601f19601f82011682018060405250810190610ae19190610d18565b610aeb9190610e10565b9392505050565b60046020528160005260406000208181548110610b0e57600080fd5b6000918252602090912001546001600160a01b03169150829050565b6001600160a01b038216600090815260036020526040812090610b4d8484610a50565b90508015610530576001600160a01b038316600090815260018301602052604081205483548391610b7d91610e2f565b610b879190610e10565b9050610b9b670de0b6b3a764000082610dee565b6001600160a01b038516600090815260028501602052604081208054909190610bc5908490610dd6565b909155505082546001600160a01b03851660009081526001850160205260409020555050505050565b600060208284031215610c0057600080fd5b8135610aeb81610ea3565b60008060408385031215610c1e57600080fd5b8235610c2981610ea3565b91506020830135610c3981610ea3565b809150509250929050565b60008060408385031215610c5757600080fd5b8235610c6281610ea3565b915060208301358015158114610c3957600080fd5b60008060408385031215610c8a57600080fd5b8235610c9581610ea3565b946020939093013593505050565b60008060208385031215610cb657600080fd5b823567ffffffffffffffff80821115610cce57600080fd5b818501915085601f830112610ce257600080fd5b813581811115610cf157600080fd5b8660208260051b8501011115610d0657600080fd5b60209290920196919550909350505050565b600060208284031215610d2a57600080fd5b5051919050565b6020808252825182820181905260009190848201906040850190845b81811015610d725783516001600160a01b031683529284019291840191600101610d4d565b50909695505050505050565b602080825282518282018190526000919060409081850190868401855b82811015610dc9578151805185528601516001600160a01b0316868501529284019290850190600101610d9b565b5091979650505050505050565b60008219821115610de957610de9610e61565b500190565b600082610e0b57634e487b7160e01b600052601260045260246000fd5b500490565b6000816000190483118215151615610e2a57610e2a610e61565b500290565b600082821015610e4157610e41610e61565b500390565b6000600019821415610e5a57610e5a610e61565b5060010190565b634e487b7160e01b600052601160045260246000fd5b634e487b7160e01b600052603260045260246000fd5b634e487b7160e01b600052604160045260246000fd5b6001600160a01b0381168114610eb857600080fd5b5056fea2646970667358221220c473a42295c48fa9708d4f7ebedd73918debe6f83f918029ca0b916e7be530ef64736f6c63430008070033","linkReferences":{}},"methodIdentifiers":{"addFees(address)":"64e084bf","balanceOf(address,address)":"f7888aec","batchClaiming(address[])":"09fc572f","claimFees(address)":"15a0ea6a","curves()":"5accf175","getClaimableFees(address,address)":"ebf34712","getUserTokens(address)":"519dc8d2","getUserTokensAndClaimable(address)":"20bf3447","managers(address)":"fdff9b4d","onBalanceChange(address,address)":"1e22e073","owner()":"8da5cb5b","setCurves(address)":"f079f3ea","setManager(address,bool)":"a5e90eee","tokensData(address)":"ac66c6e0","totalSupply(address)":"e4dc2aa4","transferOwnership(address)":"f2fde38b","userTokens(address,uint256)":"f9f411d8"},"id":3}