{"abi":[{"type":"constructor","inputs":[{"name":"curvesERC20Factory_","type":"address","internalType":"address"},{"name":"feeRedistributor_","type":"address","internalType":"address"}],"stateMutability":"nonpayable"},{"type":"function","name":"DEFAULT_NAME","inputs":[],"outputs":[{"name":"","type":"string","internalType":"string"}],"stateMutability":"view"},{"type":"function","name":"DEFAULT_SYMBOL","inputs":[],"outputs":[{"name":"","type":"string","internalType":"string"}],"stateMutability":"view"},{"type":"function","name":"buyCurvesToken","inputs":[{"name":"curvesTokenSubject","type":"address","internalType":"address"},{"name":"amount","type":"uint256","internalType":"uint256"}],"outputs":[],"stateMutability":"payable"},{"type":"function","name":"buyCurvesTokenForPresale","inputs":[{"name":"curvesTokenSubject","type":"address","internalType":"address"},{"name":"amount","type":"uint256","internalType":"uint256"},{"name":"startTime","type":"uint256","internalType":"uint256"},{"name":"merkleRoot","type":"bytes32","internalType":"bytes32"},{"name":"maxBuy","type":"uint256","internalType":"uint256"}],"outputs":[],"stateMutability":"payable"},{"type":"function","name":"buyCurvesTokenWhitelisted","inputs":[{"name":"curvesTokenSubject","type":"address","internalType":"address"},{"name":"amount","type":"uint256","internalType":"uint256"},{"name":"proof","type":"bytes32[]","internalType":"bytes32[]"}],"outputs":[],"stateMutability":"payable"},{"type":"function","name":"buyCurvesTokenWithName","inputs":[{"name":"curvesTokenSubject","type":"address","internalType":"address"},{"name":"amount","type":"uint256","internalType":"uint256"},{"name":"name","type":"string","internalType":"string"},{"name":"symbol","type":"string","internalType":"string"}],"outputs":[],"stateMutability":"payable"},{"type":"function","name":"curvesERC20Factory","inputs":[],"outputs":[{"name":"","type":"address","internalType":"address"}],"stateMutability":"view"},{"type":"function","name":"curvesTokenBalance","inputs":[{"name":"","type":"address","internalType":"address"},{"name":"","type":"address","internalType":"address"}],"outputs":[{"name":"","type":"uint256","internalType":"uint256"}],"stateMutability":"view"},{"type":"function","name":"curvesTokenSupply","inputs":[{"name":"","type":"address","internalType":"address"}],"outputs":[{"name":"","type":"uint256","internalType":"uint256"}],"stateMutability":"view"},{"type":"function","name":"deposit","inputs":[{"name":"curvesTokenSubject","type":"address","internalType":"address"},{"name":"amount","type":"uint256","internalType":"uint256"}],"outputs":[],"stateMutability":"nonpayable"},{"type":"function","name":"externalCurvesToSubject","inputs":[{"name":"","type":"address","internalType":"address"}],"outputs":[{"name":"","type":"address","internalType":"address"}],"stateMutability":"view"},{"type":"function","name":"externalCurvesTokens","inputs":[{"name":"","type":"address","internalType":"address"}],"outputs":[{"name":"name","type":"string","internalType":"string"},{"name":"symbol","type":"string","internalType":"string"},{"name":"token","type":"address","internalType":"address"}],"stateMutability":"view"},{"type":"function","name":"feeRedistributor","inputs":[],"outputs":[{"name":"","type":"address","internalType":"contract FeeSplitter"}],"stateMutability":"view"},{"type":"function","name":"feesEconomics","inputs":[],"outputs":[{"name":"protocolFeeDestination","type":"address","internalType":"address"},{"name":"protocolFeePercent","type":"uint256","internalType":"uint256"},{"name":"subjectFeePercent","type":"uint256","internalType":"uint256"},{"name":"referralFeePercent","type":"uint256","internalType":"uint256"},{"name":"holdersFeePercent","type":"uint256","internalType":"uint256"},{"name":"maxFeePercent","type":"uint256","internalType":"uint256"}],"stateMutability":"view"},{"type":"function","name":"getBuyPrice","inputs":[{"name":"curvesTokenSubject","type":"address","internalType":"address"},{"name":"amount","type":"uint256","internalType":"uint256"}],"outputs":[{"name":"","type":"uint256","internalType":"uint256"}],"stateMutability":"view"},{"type":"function","name":"getBuyPriceAfterFee","inputs":[{"name":"curvesTokenSubject","type":"address","internalType":"address"},{"name":"amount","type":"uint256","internalType":"uint256"}],"outputs":[{"name":"","type":"uint256","internalType":"uint256"}],"stateMutability":"view"},{"type":"function","name":"getFees","inputs":[{"name":"price","type":"uint256","internalType":"uint256"}],"outputs":[{"name":"protocolFee","type":"uint256","internalType":"uint256"},{"name":"subjectFee","type":"uint256","internalType":"uint256"},{"name":"referralFee","type":"uint256","internalType":"uint256"},{"name":"holdersFee","type":"uint256","internalType":"uint256"},{"name":"totalFee","type":"uint256","internalType":"uint256"}],"stateMutability":"view"},{"type":"function","name":"getPrice","inputs":[{"name":"supply","type":"uint256","internalType":"uint256"},{"name":"amount","type":"uint256","internalType":"uint256"}],"outputs":[{"name":"","type":"uint256","internalType":"uint256"}],"stateMutability":"pure"},{"type":"function","name":"getSellPrice","inputs":[{"name":"curvesTokenSubject","type":"address","internalType":"address"},{"name":"amount","type":"uint256","internalType":"uint256"}],"outputs":[{"name":"","type":"uint256","internalType":"uint256"}],"stateMutability":"view"},{"type":"function","name":"getSellPriceAfterFee","inputs":[{"name":"curvesTokenSubject","type":"address","internalType":"address"},{"name":"amount","type":"uint256","internalType":"uint256"}],"outputs":[{"name":"","type":"uint256","internalType":"uint256"}],"stateMutability":"view"},{"type":"function","name":"managers","inputs":[{"name":"","type":"address","internalType":"address"}],"outputs":[{"name":"","type":"bool","internalType":"bool"}],"stateMutability":"view"},{"type":"function","name":"mint","inputs":[{"name":"curvesTokenSubject","type":"address","internalType":"address"}],"outputs":[],"stateMutability":"nonpayable"},{"type":"function","name":"owner","inputs":[],"outputs":[{"name":"","type":"address","internalType":"address"}],"stateMutability":"view"},{"type":"function","name":"presalesBuys","inputs":[{"name":"","type":"address","internalType":"address"},{"name":"","type":"address","internalType":"address"}],"outputs":[{"name":"","type":"uint256","internalType":"uint256"}],"stateMutability":"view"},{"type":"function","name":"presalesMeta","inputs":[{"name":"","type":"address","internalType":"address"}],"outputs":[{"name":"startTime","type":"uint256","internalType":"uint256"},{"name":"merkleRoot","type":"bytes32","internalType":"bytes32"},{"name":"maxBuy","type":"uint256","internalType":"uint256"}],"stateMutability":"view"},{"type":"function","name":"referralFeeDestination","inputs":[{"name":"","type":"address","internalType":"address"}],"outputs":[{"name":"","type":"address","internalType":"address"}],"stateMutability":"view"},{"type":"function","name":"sellCurvesToken","inputs":[{"name":"curvesTokenSubject","type":"address","internalType":"address"},{"name":"amount","type":"uint256","internalType":"uint256"}],"outputs":[],"stateMutability":"nonpayable"},{"type":"function","name":"sellExternalCurvesToken","inputs":[{"name":"curvesTokenSubject","type":"address","internalType":"address"},{"name":"amount","type":"uint256","internalType":"uint256"}],"outputs":[],"stateMutability":"nonpayable"},{"type":"function","name":"setERC20Factory","inputs":[{"name":"factory_","type":"address","internalType":"address"}],"outputs":[],"stateMutability":"nonpayable"},{"type":"function","name":"setExternalFeePercent","inputs":[{"name":"subjectFeePercent_","type":"uint256","internalType":"uint256"},{"name":"referralFeePercent_","type":"uint256","internalType":"uint256"},{"name":"holdersFeePercent_","type":"uint256","internalType":"uint256"}],"outputs":[],"stateMutability":"nonpayable"},{"type":"function","name":"setFeeRedistributor","inputs":[{"name":"feeRedistributor_","type":"address","internalType":"address"}],"outputs":[],"stateMutability":"nonpayable"},{"type":"function","name":"setManager","inputs":[{"name":"manager_","type":"address","internalType":"address"},{"name":"value","type":"bool","internalType":"bool"}],"outputs":[],"stateMutability":"nonpayable"},{"type":"function","name":"setMaxFeePercent","inputs":[{"name":"maxFeePercent_","type":"uint256","internalType":"uint256"}],"outputs":[],"stateMutability":"nonpayable"},{"type":"function","name":"setNameAndSymbol","inputs":[{"name":"curvesTokenSubject","type":"address","internalType":"address"},{"name":"name","type":"string","internalType":"string"},{"name":"symbol","type":"string","internalType":"string"}],"outputs":[],"stateMutability":"nonpayable"},{"type":"function","name":"setProtocolFeePercent","inputs":[{"name":"protocolFeePercent_","type":"uint256","internalType":"uint256"},{"name":"protocolFeeDestination_","type":"address","internalType":"address"}],"outputs":[],"stateMutability":"nonpayable"},{"type":"function","name":"setReferralFeeDestination","inputs":[{"name":"curvesTokenSubject","type":"address","internalType":"address"},{"name":"referralFeeDestination_","type":"address","internalType":"address"}],"outputs":[],"stateMutability":"nonpayable"},{"type":"function","name":"setWhitelist","inputs":[{"name":"merkleRoot","type":"bytes32","internalType":"bytes32"}],"outputs":[],"stateMutability":"nonpayable"},{"type":"function","name":"symbolToSubject","inputs":[{"name":"","type":"string","internalType":"string"}],"outputs":[{"name":"","type":"address","internalType":"address"}],"stateMutability":"view"},{"type":"function","name":"transferAllCurvesTokens","inputs":[{"name":"to","type":"address","internalType":"address"}],"outputs":[],"stateMutability":"nonpayable"},{"type":"function","name":"transferCurvesToken","inputs":[{"name":"curvesTokenSubject","type":"address","internalType":"address"},{"name":"to","type":"address","internalType":"address"},{"name":"amount","type":"uint256","internalType":"uint256"}],"outputs":[],"stateMutability":"nonpayable"},{"type":"function","name":"transferOwnership","inputs":[{"name":"owner_","type":"address","internalType":"address"}],"outputs":[],"stateMutability":"nonpayable"},{"type":"function","name":"verifyMerkle","inputs":[{"name":"curvesTokenSubject","type":"address","internalType":"address"},{"name":"caller","type":"address","internalType":"address"},{"name":"proof","type":"bytes32[]","internalType":"bytes32[]"}],"outputs":[],"stateMutability":"view"},{"type":"function","name":"withdraw","inputs":[{"name":"curvesTokenSubject","type":"address","internalType":"address"},{"name":"amount","type":"uint256","internalType":"uint256"}],"outputs":[],"stateMutability":"nonpayable"},{"type":"event","name":"TokenDeployed","inputs":[{"name":"curvesTokenSubject","type":"address","indexed":true,"internalType":"address"},{"name":"erc20token","type":"address","indexed":true,"internalType":"address"},{"name":"name","type":"string","indexed":false,"internalType":"string"},{"name":"symbol","type":"string","indexed":false,"internalType":"string"}],"anonymous":false},{"type":"event","name":"Trade","inputs":[{"name":"trader","type":"address","indexed":false,"internalType":"address"},{"name":"subject","type":"address","indexed":false,"internalType":"address"},{"name":"isBuy","type":"bool","indexed":false,"internalType":"bool"},{"name":"tokenAmount","type":"uint256","indexed":false,"internalType":"uint256"},{"name":"ethAmount","type":"uint256","indexed":false,"internalType":"uint256"},{"name":"protocolEthAmount","type":"uint256","indexed":false,"internalType":"uint256"},{"name":"subjectEthAmount","type":"uint256","indexed":false,"internalType":"uint256"},{"name":"supply","type":"uint256","indexed":false,"internalType":"uint256"}],"anonymous":false},{"type":"event","name":"Transfer","inputs":[{"name":"curvesTokenSubject","type":"address","indexed":true,"internalType":"address"},{"name":"from","type":"address","indexed":true,"internalType":"address"},{"name":"to","type":"address","indexed":true,"internalType":"address"},{"name":"value","type":"uint256","indexed":false,"internalType":"uint256"}],"anonymous":false},{"type":"event","name":"WhitelistUpdated","inputs":[{"name":"presale","type":"address","indexed":true,"internalType":"address"},{"name":"root","type":"bytes32","indexed":true,"internalType":"bytes32"}],"anonymous":false},{"type":"error","name":"CannotSendFunds","inputs":[]},{"type":"error","name":"ContractCannotReceiveTransfer","inputs":[]},{"type":"error","name":"CurveAlreadyExists","inputs":[]},{"type":"error","name":"ERC20TokenAlreadyMinted","inputs":[]},{"type":"error","name":"ExceededMaxBuyAmount","inputs":[]},{"type":"error","name":"InsufficientBalance","inputs":[]},{"type":"error","name":"InsufficientPayment","inputs":[]},{"type":"error","name":"InvalidERC20Metadata","inputs":[]},{"type":"error","name":"InvalidFeeDefinition","inputs":[]},{"type":"error","name":"InvalidPresaleStartTime","inputs":[]},{"type":"error","name":"LastTokenCannotBeSold","inputs":[]},{"type":"error","name":"NonIntegerDepositAmount","inputs":[]},{"type":"error","name":"PresaleUnavailable","inputs":[]},{"type":"error","name":"SaleNotOpen","inputs":[]},{"type":"error","name":"TokenAbsentForCurvesTokenSubject","inputs":[]},{"type":"error","name":"UnauthorizedCurvesTokenSubject","inputs":[]},{"type":"error","name":"UnverifiedProof","inputs":[]}],"bytecode":{"object":"0x608060405260006004553480156200001657600080fd5b5060405162003480380380620034808339810160408190526200003991620000ad565b60008054336001600160a01b0319918216811783558252600160208190526040909220805460ff19169092179091556002805482166001600160a01b039485161790556003805490911691909216179055620000e5565b80516001600160a01b0381168114620000a857600080fd5b919050565b60008060408385031215620000c157600080fd5b620000cc8362000090565b9150620000dc6020840162000090565b90509250929050565b61338b80620000f56000396000f3fe60806040526004361061025c5760003560e01c80638d7b0ea511610144578063d43761df116100b6578063f2fde38b1161007a578063f2fde38b1461089b578063f3fef3a3146108d8578063f516b879146108f8578063f518fbdd14610935578063fd6fefab14610955578063fdff9b4d1461098b57600080fd5b8063d43761df146107ab578063d4bbdebd146107e3578063d5a06d4c14610820578063e1d27f4d14610868578063e78267da1461088857600080fd5b80639b8744b3116101085780639b8744b314610668578063a5e90eee1461067b578063ad559470146106c1578063c233d5a714610702578063ca71a92b14610734578063d316223c1461075457600080fd5b80638d7b0ea5146105935780638da5cb5b146105c957806394664176146105e957806398c69648146106095780639ae717811461064857600080fd5b8063440bc7f3116101dd5780634da4708c116101a15780634da4708c146104885780634e291a76146104a85780635cf4ee91146105135780636a627842146105335780637c57222d1461055357806380ea9d571461057357600080fd5b8063440bc7f3146103d05780634635256e146103f057806347e7ef24146104105780634bcaad0b146104305780634cded95c1461046857600080fd5b806325272fa61161022457806325272fa61461031657806328eb60f0146103365780632927d3e81461036e5780632f4e06011461039d57806340e277bb146103b057600080fd5b80630928c577146102615780630a70c5e1146102765780630f026f6d1461029657806316593dcf146102c95780632267a89c146102f6575b600080fd5b61027461026f366004612de2565b6109cb565b005b34801561028257600080fd5b50610274610291366004612fcb565b610a20565b3480156102a257600080fd5b506102b66102b1366004612de2565b610a7f565b6040519081526020015b60405180910390f35b3480156102d557600080fd5b506102b66102e4366004612c2d565b60126020526000908152604090205481565b34801561030257600080fd5b506102b6610311366004612de2565b610ab4565b34801561032257600080fd5b50610274610331366004612de2565b610ae0565b34801561034257600080fd5b50600354610356906001600160a01b031681565b6040516001600160a01b0390911681526020016102c0565b34801561037a57600080fd5b5061038e610389366004612c2d565b610bea565b6040516102c09392919061317e565b6102746103ab366004612e51565b610d25565b3480156103bc57600080fd5b50600254610356906001600160a01b031681565b3480156103dc57600080fd5b506102746103eb366004612f15565b610d79565b3480156103fc57600080fd5b506102b661040b366004612de2565b610e06565b34801561041c57600080fd5b5061027461042b366004612de2565b610e30565b34801561043c57600080fd5b506102b661044b366004612c67565b601160209081526000928352604080842090915290825290205481565b34801561047457600080fd5b50610274610483366004612de2565b611002565b34801561049457600080fd5b506102746104a3366004612d02565b61105d565b3480156104b457600080fd5b50600a54600b54600c54600d54600e54600f546104dc956001600160a01b0316949392919086565b604080516001600160a01b0390971687526020870195909552938501929092526060840152608083015260a082015260c0016102c0565b34801561051f57600080fd5b506102b661052e366004612fa9565b611093565b34801561053f57600080fd5b5061027461054e366004612c2d565b6111b4565b34801561055f57600080fd5b5061027461056e366004612f84565b61146b565b34801561057f57600080fd5b5061027461058e366004612c2d565b6114ed565b34801561059f57600080fd5b506103566105ae366004612c2d565b6010602052600090815260409020546001600160a01b031681565b3480156105d557600080fd5b50600054610356906001600160a01b031681565b3480156105f557600080fd5b50610274610604366004612ca0565b6115c6565b34801561061557600080fd5b5061063b6040518060400160405280600681526020016543757276657360d01b81525081565b6040516102c09190613146565b34801561065457600080fd5b506102b6610663366004612de2565b611650565b610274610676366004612ed1565b61167e565b34801561068757600080fd5b50610274610696366004612d43565b6001600160a01b03919091166000908152600160205260409020805460ff1916911515919091179055565b3480156106cd57600080fd5b506103566106dc366004612f2e565b80516020818301810180516007825292820191909301209152546001600160a01b031681565b34801561070e57600080fd5b5061063b6040518060400160405280600681526020016543555256455360d01b81525081565b34801561074057600080fd5b5061027461074f366004612c67565b611760565b34801561076057600080fd5b5061079061076f366004612c2d565b60086020526000908152604090208054600182015460029092015490919083565b604080519384526020840192909252908201526060016102c0565b3480156107b757600080fd5b506102b66107c6366004612c67565b600960209081526000928352604080842090915290825290205481565b3480156107ef57600080fd5b506102746107fe366004612c2d565b600380546001600160a01b0319166001600160a01b0392909216919091179055565b34801561082c57600080fd5b5061084061083b366004612f15565b6117b9565b604080519586526020860194909452928401919091526060830152608082015260a0016102c0565b34801561087457600080fd5b50610274610883366004612d76565b61187e565b610274610896366004612e0e565b61198f565b3480156108a757600080fd5b506102746108b6366004612c2d565b600080546001600160a01b0319166001600160a01b0392909216919091179055565b3480156108e457600080fd5b506102746108f3366004612de2565b611a89565b34801561090457600080fd5b50610274610913366004612c2d565b600280546001600160a01b0319166001600160a01b0392909216919091179055565b34801561094157600080fd5b50610274610950366004612f15565b611e26565b34801561096157600080fd5b50610356610970366004612c2d565b6006602052600090815260409020546001600160a01b031681565b34801561099757600080fd5b506109bb6109a6366004612c2d565b60016020526000908152604090205460ff1681565b60405190151581526020016102c0565b6001600160a01b03821660009081526008602052604090205480158015906109f35750428110155b15610a1157604051631117739360e21b815260040160405180910390fd5b610a1b8383611e80565b505050565b336000526001602052600f54600b5482908490610a3e9087906131ed565b610a4891906131ed565b610a5291906131ed565b1115610a7157604051635bf8a0fb60e11b815260040160405180910390fd5b600c92909255600d55600e55565b600080610a8c8484610e06565b90506000610a99826117b9565b9450505050508082610aab91906131ed565b95945050505050565b600080610ac18484611650565b90506000610ace826117b9565b9450505050508082610aab9190613238565b6001600160a01b038216600090815260126020526040902054818111610b19576040516331c5c2c160e11b815260040160405180910390fd5b6001600160a01b0383166000908152601160209081526040808320338452909152902054821115610b5d57604051631e9acf1760e31b815260040160405180910390fd5b6000610b72610b6c8484613238565b84611093565b6001600160a01b0385166000908152601160209081526040808320338452909152812080549293508592909190610baa908490613238565b90915550610bba90508383613238565b6001600160a01b038516600090815260126020526040812091909155610be4908590838686611fbe565b50505050565b600560205260009081526040902080548190610c059061327b565b80601f0160208091040260200160405190810160405280929190818152602001828054610c319061327b565b8015610c7e5780601f10610c5357610100808354040283529160200191610c7e565b820191906000526020600020905b815481529060010190602001808311610c6157829003601f168201915b505050505090806001018054610c939061327b565b80601f0160208091040260200160405190810160405280929190818152602001828054610cbf9061327b565b8015610d0c5780601f10610ce157610100808354040283529160200191610d0c565b820191906000526020600020905b815481529060010190602001808311610cef57829003601f168201915b505050600290930154919250506001600160a01b031683565b6001600160a01b0384166000908152601260205260409020548015610d5d57604051631248f6d960e01b815260040160405180910390fd5b610d678585611e80565b610d72858484612377565b5050505050565b336000908152601260205260409020546001811115610dab57604051631248f6d960e01b815260040160405180910390fd5b336000908152600860205260409020600101548214610e025733600081815260086020526040808220600101859055518492917f363eed7cdb0d83be2ee8f8cf5a381a307c10791386e57a7dd427cd0763017d3391a35b5050565b6001600160a01b038216600090815260126020526040812054610e299083611093565b9392505050565b610e42670de0b6b3a7640000826132d1565b15610e5f5760405162c3f64b60e41b815260040160405180910390fd5b6001600160a01b0380831660009081526005602052604081206002015490911690610e92670de0b6b3a764000084613205565b90506001600160a01b038216610ebb57604051632fdda47960e11b815260040160405180910390fd5b6040516370a0823160e01b81523360048201526001600160a01b038316906370a082319060240160206040518083038186803b158015610efa57600080fd5b505afa158015610f0e573d6000803e3d6000fd5b505050506040513d601f19601f82011682018060405250810190610f329190612f6b565b831115610f5257604051631e9acf1760e31b815260040160405180910390fd5b6001600160a01b0384166000908152601160209081526040808320308452909152902054811115610f9657604051631e9acf1760e31b815260040160405180910390fd5b604051632770a7eb60e21b8152336004820152602481018490526001600160a01b03831690639dc29fac90604401600060405180830381600087803b158015610fde57600080fd5b505af1158015610ff2573d6000803e3d6000fd5b50505050610be4843033846123e8565b6001600160a01b038281166000908152600560205260409020600201541661103d57604051632fdda47960e11b815260040160405180910390fd5b6110478282610e30565b610e0282610331670de0b6b3a764000084613205565b6001600160a01b038216301415611087576040516310fa696160e01b815260040160405180910390fd5b610a1b833384846123e8565b60008083156110ee5760066110a9600186613238565b6110b4906002613219565b6110bf9060016131ed565b856110cb600182613238565b6110d59190613219565b6110df9190613219565b6110e99190613205565b6110f1565b60005b90506000841580156111035750836001145b61117857600684611115600188613238565b61111f91906131ed565b61112a906002613219565b6111359060016131ed565b61113f86886131ed565b8661114b60018a613238565b61115591906131ed565b61115f9190613219565b6111699190613219565b6111739190613205565b61117b565b60005b905060006111898383613238565b9050613e806111a082670de0b6b3a7640000613219565b6111aa9190613205565b9695505050505050565b806001600160a01b03811633146111de576040516339e7619960e01b815260040160405180910390fd5b6040805160008082526020808301808552835190206001600160a01b0387168352600590915290839020909261121492016130aa565b60405160208183030381529060405280519060200120148061128557506040805160008082526020808301808552835190206001600160a01b0387168352600590915290839020909261126d92600190920191016130aa565b60405160208183030381529060405280519060200120145b1561131957604080518082018252600681526543757276657360d01b60208083019182526001600160a01b038616600090815260059091529290922090516112cd9290612a9e565b50604080518082018252600681526543555256455360d01b60208083019182526001600160a01b038616600090815260059091529290922090516113179260019092019190612a9e565b505b6001600160a01b03821660009081526005602052604090208054610e029184916113429061327b565b80601f016020809104026020016040519081016040528092919081815260200182805461136e9061327b565b80156113bb5780601f10611390576101008083540402835291602001916113bb565b820191906000526020600020905b81548152906001019060200180831161139e57829003601f168201915b5050506001600160a01b038716600090815260056020526040902060010180549092506113e8915061327b565b80601f01602080910402602001604051908101604052809291908181526020018280546114149061327b565b80156114615780601f1061143657610100808354040283529160200191611461565b820191906000526020600020905b81548152906001019060200180831161144457829003601f168201915b5050505050612377565b600f54600e54600d54600c5461148190866131ed565b61148b91906131ed565b61149591906131ed565b11806114a857506001600160a01b038116155b156114c657604051635bf8a0fb60e11b815260040160405180910390fd5b600b91909155600a80546001600160a01b0319166001600160a01b03909216919091179055565b6001600160a01b038116301415611517576040516310fa696160e01b815260040160405180910390fd5b336000908152601360205260408120905b8154811015610a1b5760006011600084848154811061154957611549613311565b60009182526020808320909101546001600160a01b031683528281019390935260409182018120338252909252902054905080156115b3576115b383838154811061159657611596613311565b6000918252602090912001546001600160a01b03163386846123e8565b50806115be816132b6565b915050611528565b6040516bffffffffffffffffffffffff19606084901b1660208201526000906034016040516020818303038152906040528051906020012090506116338260086000876001600160a01b03166001600160a01b03168152602001908152602001600020600101548361252d565b610be45760405163099baf0560e41b815260040160405180910390fd5b6001600160a01b038216600090815260126020526040812054610e2990611678908490613238565b83611093565b846001600160a01b03811633146116a8576040516339e7619960e01b815260040160405180910390fd5b4284116116c85760405163a584fef360e01b815260040160405180910390fd5b6001600160a01b038616600090815260126020526040902054801561170057604051631248f6d960e01b815260040160405180910390fd5b6001600160a01b0387166000908152600860205260409020858155600101849055821561172d5782611731565b6000195b6001600160a01b0388166000908152600860205260409020600201556117578787611e80565b50505050505050565b816001600160a01b038116331461178a576040516339e7619960e01b815260040160405180910390fd5b506001600160a01b03918216600090815260106020526040902080546001600160a01b03191691909216179055565b6000806000806000670de0b6b3a7640000600a60010154876117db9190613219565b6117e59190613205565b600c54909550670de0b6b3a7640000906117ff9088613219565b6118099190613205565b600d54909450670de0b6b3a7640000906118239088613219565b61182d9190613205565b600e54909350670de0b6b3a7640000906118479088613219565b6118519190613205565b9150818361185f86886131ed565b61186991906131ed565b61187391906131ed565b905091939590929450565b826001600160a01b03811633146118a8576040516339e7619960e01b815260040160405180910390fd5b6001600160a01b0384811660009081526005602052604090206002015416156118e457604051630a29d9c560e41b815260040160405180910390fd5b60006001600160a01b03166007836040516118ff9190613023565b908152604051908190036020019020546001600160a01b03161461193657604051636a9eb37760e11b815260040160405180910390fd5b6001600160a01b0384166000908152600560209081526040909120845161195f92860190612a9e565b506001600160a01b03841660009081526005602090815260409091208351610d7292600190920191850190612a9e565b6001600160a01b03831660009081526008602052604090205415806119cc57506001600160a01b0383166000908152600860205260409020544210155b156119ea57604051631390174160e31b815260040160405180910390fd5b6001600160a01b038316600090815260096020908152604080832033845290915281208054849290611a1d9084906131ed565b90915550506001600160a01b03831660008181526009602090815260408083203384528252808320549383526008909152902060020154811115611a745760405163f22689ed60e01b815260040160405180910390fd5b611a7f8433846115c6565b610be48484611e80565b6001600160a01b0382166000908152601160209081526040808320338452909152902054811115611acd57604051631e9acf1760e31b815260040160405180910390fd5b6001600160a01b038083166000908152600560205260409020600201541680611d9e576040805160008082526020808301808552835190206001600160a01b03881683526005909152908390209092611b2692016130aa565b604051602081830303815290604052805190602001201480611b9757506040805160008082526020808301808552835190206001600160a01b03881683526005909152908390209092611b7f92600190920191016130aa565b60405160208183030381529060405280519060200120145b15611c2b57604080518082018252600681526543757276657360d01b60208083019182526001600160a01b03871660009081526005909152929092209051611bdf9290612a9e565b50604080518082018252600681526543555256455360d01b60208083019182526001600160a01b03871660009081526005909152929092209051611c299260019092019190612a9e565b505b6001600160a01b03831660009081526005602052604090208054611d7d918591611c549061327b565b80601f0160208091040260200160405190810160405280929190818152602001828054611c809061327b565b8015611ccd5780601f10611ca257610100808354040283529160200191611ccd565b820191906000526020600020905b815481529060010190602001808311611cb057829003601f168201915b5050506001600160a01b03881660009081526005602052604090206001018054909250611cfa915061327b565b80601f0160208091040260200160405190810160405280929190818152602001828054611d269061327b565b8015611d735780601f10611d4857610100808354040283529160200191611d73565b820191906000526020600020905b815481529060010190602001808311611d5657829003601f168201915b5050505050612543565b50506001600160a01b03808316600090815260056020526040902060020154165b611daa833330856123e8565b6001600160a01b0381166340c10f1933611dcc85670de0b6b3a7640000613219565b6040516001600160e01b031960e085901b1681526001600160a01b0390921660048301526024820152604401600060405180830381600087803b158015611e1257600080fd5b505af1158015611757573d6000803e3d6000fd5b336000526001602052600e54600d54600c54600b5484939291611e48916131ed565b611e5291906131ed565b611e5c91906131ed565b1115611e7b57604051635bf8a0fb60e11b815260040160405180910390fd5b600f55565b6001600160a01b03821660009081526012602052604090205480151580611eaf57506001600160a01b03831633145b611ecc576040516339e7619960e01b815260040160405180910390fd5b6000611ed88284611093565b90506000611ee5826117b9565b9450505050508082611ef791906131ed565b341015611f175760405163cd1c886760e01b815260040160405180910390fd5b6001600160a01b038516600090815260116020908152604080832033845290915281208054869290611f4a9084906131ed565b90915550611f5a905084846131ed565b6001600160a01b038616600090815260126020526040902055611f81856001848787611fbe565b6001600160a01b0385166000908152601160209081526040808320338452909152902054611fb0908590613238565b610d7257610d72338661280d565b600080600080611fcd876117b9565b506001600160a01b038d8116600090815260106020526040812054959950939750919550935091909116151590896120055733612012565b600a546001600160a01b03165b905060008261202a5761202585886131ed565b61202c565b865b9050600084868861203d8b8f613238565b6120479190613238565b6120519190613238565b61205b9190613238565b90506000836001600160a01b03168d6120745782612076565b835b604051600081818185875af1925050503d80600081146120b2576040519150601f19603f3d011682016040523d82523d6000602084013e6120b7565b606091505b50509050806120d9576040516334dce40560e21b815260040160405180910390fd5b5050505060008a6001600160a01b03168560405160006040518083038185875af1925050503d806000811461212a576040519150601f19603f3d011682016040523d82523d6000602084013e61212f565b606091505b5050905080612151576040516334dce40560e21b815260040160405180910390fd5b50600081612170576001604051806020016040528060008152506121d0565b6001600160a01b038b8116600090815260106020526040808220549051921691869181818185875af1925050503d80600081146121c9576040519150601f19603f3d011682016040523d82523d6000602084013e6121ce565b606091505b505b509050806121f1576040516334dce40560e21b815260040160405180910390fd5b50600e541580159061220d57506003546001600160a01b031615155b156122d957600354604051631e22e07360e01b81526001600160a01b038c8116600483015233602483015290911690631e22e07390604401600060405180830381600087803b15801561225f57600080fd5b505af1158015612273573d6000803e3d6000fd5b50506003546040516364e084bf60e01b81526001600160a01b038e8116600483015290911692506364e084bf915084906024016000604051808303818588803b1580156122bf57600080fd5b505af11580156122d3573d6000803e3d6000fd5b50505050505b507f2c76e7a47fd53e2854856ac3f0a5f3ee40d15cfaa82266357ea9779c486ab9c3338a8a898b89898f612316576123118e8e613238565b612320565b6123208e8e6131ed565b604080516001600160a01b03998a168152979098166020880152941515868801526060860193909352608085019190915260a084015260c083015260e08201529051908190036101000190a1505050505050505050565b826001600160a01b03811633146123a1576040516339e7619960e01b815260040160405180910390fd5b6001600160a01b0384811660009081526005602052604090206002015416156123dd57604051630a29d9c560e41b815260040160405180910390fd5b610d72848484612543565b6001600160a01b0380851660009081526011602090815260408083209387168352929052205481111561242e57604051631e9acf1760e31b815260040160405180910390fd5b816001600160a01b0316836001600160a01b03161461245157612451828561280d565b6001600160a01b03808516600090815260116020908152604080832093871683529290522054612482908290613238565b6001600160a01b038581166000908152601160209081526040808320888516845290915280822093909355908416815220546124bf9082906131ed565b6001600160a01b0380861660008181526011602090815260408083208886168085529252918290209490945551918616917fd1398bee19313d6bf672ccb116e51f4a1a947e91c757907f51fbb5b5e56c698f9061251f9086815260200190565b60405180910390a450505050565b60008261253a85846128b4565b14949350505050565b60408051808201909152600681526543555256455360d01b6020918201528151908201206000907f1927f2939eb50434110584ff50abdad1bcca2c43c2e197d289429fcb77e9cc0e1415612608576001600460008282546125a491906131ed565b92505081905550826125b7600454612901565b6040516020016125c892919061306e565b6040516020818303038152906040529250816125e5600454612901565b6040516020016125f692919061303f565b60405160208183030381529060405291505b60006001600160a01b03166007836040516126239190613023565b908152604051908190036020019020546001600160a01b03161461265a57604051636a9eb37760e11b815260040160405180910390fd5b600254604051631a80cb3560e21b81526000916001600160a01b031690636a032cd49061268f9087908790309060040161317e565b602060405180830381600087803b1580156126a957600080fd5b505af11580156126bd573d6000803e3d6000fd5b505050506040513d601f19601f820116820180604052508101906126e19190612c4a565b6001600160a01b0386811660009081526005602090815260409091206002810180546001600160a01b0319169385169390931790925586519293506127299290870190612a9e565b506001600160a01b0385166000908152600560209081526040909120845161275992600190920191860190612a9e565b506001600160a01b038181166000908152600660205260409081902080546001600160a01b0319169288169290921790915551859060079061279c908690613023565b90815260405190819003602001812080546001600160a01b039384166001600160a01b0319909116179055828216918716907f801b50b59a9c797b08c62fe4c8bee1aff31ff3246d488e359cedfc8e75ffd05f906127fd9088908890613159565b60405180910390a3949350505050565b6001600160a01b0382166000908152601360205260408120905b815481101561287f57826001600160a01b031682828154811061284c5761284c613311565b6000918252602090912001546001600160a01b0316141561286d5750505050565b80612877816132b6565b915050612827565b508054600181018255600091825260209091200180546001600160a01b0319166001600160a01b039290921691909117905550565b600081815b84518110156128f9576128e5828683815181106128d8576128d8613311565b6020026020010151612996565b9150806128f1816132b6565b9150506128b9565b509392505050565b6060600061290e836129c5565b600101905060008167ffffffffffffffff81111561292e5761292e613327565b6040519080825280601f01601f191660200182016040528015612958576020820181803683370190505b5090508181016020015b600019016f181899199a1a9b1b9c1cb0b131b232b360811b600a86061a8153600a8504945084612991576128f9565b612962565b60008183106129b2576000828152602084905260409020610e29565b6000838152602083905260409020610e29565b60008072184f03e93ff9f4daa797ed6e38ed64bf6a1f0160401b8310612a045772184f03e93ff9f4daa797ed6e38ed64bf6a1f0160401b830492506040015b6d04ee2d6d415b85acef81000000008310612a30576d04ee2d6d415b85acef8100000000830492506020015b662386f26fc100008310612a4e57662386f26fc10000830492506010015b6305f5e1008310612a66576305f5e100830492506008015b6127108310612a7a57612710830492506004015b60648310612a8c576064830492506002015b600a8310612a98576001015b92915050565b828054612aaa9061327b565b90600052602060002090601f016020900481019282612acc5760008555612b12565b82601f10612ae557805160ff1916838001178555612b12565b82800160010185558215612b12579182015b82811115612b12578251825591602001919060010190612af7565b50612b1e929150612b22565b5090565b5b80821115612b1e5760008155600101612b23565b600082601f830112612b4857600080fd5b8135602067ffffffffffffffff821115612b6457612b64613327565b8160051b612b738282016131bc565b838152828101908684018388018501891015612b8e57600080fd5b600093505b85841015612bb1578035835260019390930192918401918401612b93565b50979650505050505050565b600082601f830112612bce57600080fd5b813567ffffffffffffffff811115612be857612be8613327565b612bfb601f8201601f19166020016131bc565b818152846020838601011115612c1057600080fd5b816020850160208301376000918101602001919091529392505050565b600060208284031215612c3f57600080fd5b8135610e298161333d565b600060208284031215612c5c57600080fd5b8151610e298161333d565b60008060408385031215612c7a57600080fd5b8235612c858161333d565b91506020830135612c958161333d565b809150509250929050565b600080600060608486031215612cb557600080fd5b8335612cc08161333d565b92506020840135612cd08161333d565b9150604084013567ffffffffffffffff811115612cec57600080fd5b612cf886828701612b37565b9150509250925092565b600080600060608486031215612d1757600080fd5b8335612d228161333d565b92506020840135612d328161333d565b929592945050506040919091013590565b60008060408385031215612d5657600080fd5b8235612d618161333d565b915060208301358015158114612c9557600080fd5b600080600060608486031215612d8b57600080fd5b8335612d968161333d565b9250602084013567ffffffffffffffff80821115612db357600080fd5b612dbf87838801612bbd565b93506040860135915080821115612dd557600080fd5b50612cf886828701612bbd565b60008060408385031215612df557600080fd5b8235612e008161333d565b946020939093013593505050565b600080600060608486031215612e2357600080fd5b8335612e2e8161333d565b925060208401359150604084013567ffffffffffffffff811115612cec57600080fd5b60008060008060808587031215612e6757600080fd5b8435612e728161333d565b935060208501359250604085013567ffffffffffffffff80821115612e9657600080fd5b612ea288838901612bbd565b93506060870135915080821115612eb857600080fd5b50612ec587828801612bbd565b91505092959194509250565b600080600080600060a08688031215612ee957600080fd5b8535612ef48161333d565b97602087013597506040870135966060810135965060800135945092505050565b600060208284031215612f2757600080fd5b5035919050565b600060208284031215612f4057600080fd5b813567ffffffffffffffff811115612f5757600080fd5b612f6384828501612bbd565b949350505050565b600060208284031215612f7d57600080fd5b5051919050565b60008060408385031215612f9757600080fd5b823591506020830135612c958161333d565b60008060408385031215612fbc57600080fd5b50508035926020909101359150565b600080600060608486031215612fe057600080fd5b505081359360208301359350604090920135919050565b6000815180845261300f81602086016020860161324f565b601f01601f19169290920160200192915050565b6000825161303581846020870161324f565b9190910192915050565b6000835161305181846020880161324f565b83519083019061306581836020880161324f565b01949350505050565b6000835161308081846020880161324f565b600160fd1b908301908152835161309e81600184016020880161324f565b01600101949350505050565b600080835481600182811c9150808316806130c657607f831692505b60208084108214156130e657634e487b7160e01b86526022600452602486fd5b8180156130fa576001811461310b57613138565b60ff19861689528489019650613138565b60008a81526020902060005b868110156131305781548b820152908501908301613117565b505084890196505b509498975050505050505050565b602081526000610e296020830184612ff7565b60408152600061316c6040830185612ff7565b8281036020840152610aab8185612ff7565b6060815260006131916060830186612ff7565b82810360208401526131a38186612ff7565b91505060018060a01b0383166040830152949350505050565b604051601f8201601f1916810167ffffffffffffffff811182821017156131e5576131e5613327565b604052919050565b60008219821115613200576132006132e5565b500190565b600082613214576132146132fb565b500490565b6000816000190483118215151615613233576132336132e5565b500290565b60008282101561324a5761324a6132e5565b500390565b60005b8381101561326a578181015183820152602001613252565b83811115610be45750506000910152565b600181811c9082168061328f57607f821691505b602082108114156132b057634e487b7160e01b600052602260045260246000fd5b50919050565b60006000198214156132ca576132ca6132e5565b5060010190565b6000826132e0576132e06132fb565b500690565b634e487b7160e01b600052601160045260246000fd5b634e487b7160e01b600052601260045260246000fd5b634e487b7160e01b600052603260045260246000fd5b634e487b7160e01b600052604160045260246000fd5b6001600160a01b038116811461335257600080fd5b5056fea2646970667358221220d7df63d51a765c6e3ca3cfe36b2e904e34590ae69e3fe5272a7079d17867732364736f6c63430008070033","linkReferences":{}},"methodIdentifiers":{"DEFAULT_NAME()":"98c69648","DEFAULT_SYMBOL()":"c233d5a7","buyCurvesToken(address,uint256)":"0928c577","buyCurvesTokenForPresale(address,uint256,uint256,bytes32,uint256)":"9b8744b3","buyCurvesTokenWhitelisted(address,uint256,bytes32[])":"e78267da","buyCurvesTokenWithName(address,uint256,string,string)":"2f4e0601","curvesERC20Factory()":"40e277bb","curvesTokenBalance(address,address)":"4bcaad0b","curvesTokenSupply(address)":"16593dcf","deposit(address,uint256)":"47e7ef24","externalCurvesToSubject(address)":"fd6fefab","externalCurvesTokens(address)":"2927d3e8","feeRedistributor()":"28eb60f0","feesEconomics()":"4e291a76","getBuyPrice(address,uint256)":"4635256e","getBuyPriceAfterFee(address,uint256)":"0f026f6d","getFees(uint256)":"d5a06d4c","getPrice(uint256,uint256)":"5cf4ee91","getSellPrice(address,uint256)":"9ae71781","getSellPriceAfterFee(address,uint256)":"2267a89c","managers(address)":"fdff9b4d","mint(address)":"6a627842","owner()":"8da5cb5b","presalesBuys(address,address)":"d43761df","presalesMeta(address)":"d316223c","referralFeeDestination(address)":"8d7b0ea5","sellCurvesToken(address,uint256)":"25272fa6","sellExternalCurvesToken(address,uint256)":"4cded95c","setERC20Factory(address)":"f516b879","setExternalFeePercent(uint256,uint256,uint256)":"0a70c5e1","setFeeRedistributor(address)":"d4bbdebd","setManager(address,bool)":"a5e90eee","setMaxFeePercent(uint256)":"f518fbdd","setNameAndSymbol(address,string,string)":"e1d27f4d","setProtocolFeePercent(uint256,address)":"7c57222d","setReferralFeeDestination(address,address)":"ca71a92b","setWhitelist(bytes32)":"440bc7f3","symbolToSubject(string)":"ad559470","transferAllCurvesTokens(address)":"80ea9d57","transferCurvesToken(address,address,uint256)":"4da4708c","transferOwnership(address)":"f2fde38b","verifyMerkle(address,address,bytes32[])":"94664176","withdraw(address,uint256)":"f3fef3a3"},"id":0}