{"abi":[{"type":"function","name":"curvesTokenBalance","inputs":[{"name":"token","type":"address","internalType":"address"},{"name":"","type":"address","internalType":"address"}],"outputs":[{"name":"","type":"uint256","internalType":"uint256"}],"stateMutability":"view"},{"type":"function","name":"curvesTokenSupply","inputs":[],"outputs":[],"stateMutability":"nonpayable"}],"bytecode":{"object":"0x608060405234801561001057600080fd5b506101e8806100206000396000f3fe608060405234801561001057600080fd5b50600436106100365760003560e01c80634bcaad0b1461003b57806389cf292d14610060575b600080fd5b61004e61004936600461011f565b610062565b60405190815260200160405180910390f35b005b604051630563363760e51b81526001600160a01b038316600482015260009033908290829063ac66c6e09060240160206040518083038186803b1580156100a857600080fd5b505afa1580156100bc573d6000803e3d6000fd5b505050506040513d601f19601f820116820180604052508101906100e09190610152565b905033316100ef60008361018d565b6100f9908261016b565b9695505050505050565b80356001600160a01b038116811461011a57600080fd5b919050565b6000806040838503121561013257600080fd5b61013b83610103565b915061014960208401610103565b90509250929050565b60006020828403121561016457600080fd5b5051919050565b60008261018857634e487b7160e01b600052601260045260246000fd5b500490565b6000828210156101ad57634e487b7160e01b600052601160045260246000fd5b50039056fea26469706673582212204c1e2663823c9c6e97da376144574d38e9a275fac74e24e3978ec2b734a0359e64736f6c63430008070033","linkReferences":{}},"methodIdentifiers":{"curvesTokenBalance(address,address)":"4bcaad0b","curvesTokenSupply()":"89cf292d"},"id":36}